S01500005A423230395F32323342595930412E7331394D
S1138000F87F002001900000BB190100BB1901009A
S1138010BB190100BB190100BB190100BB19010008
S1138020BB190100BB190100BB190100BB190100F8
S1138030BB190100BB190100BB190100A5700200A6
S1138040BB190100BB190100BB190100BB190100D8
S1138050BB190100BB190100BB190100BB190100C8
S1138060BB190100BB190100BB190100BB190100B8
S1138070BB190100BB190100BB190100BB190100A8
S1138080BB190100BB190100BB190100BB19010098
S1138090BB190100BB190100BB190100BB19010088
S11380A0BB190100BB190100BB190100BB19010078
S11380B0BB190100BB190100BB190100BB19010068
S11380C0BB190100BB190100BB190100BB19010058
S11380D0BB190100BB190100BB190100BB19010048
S11380E0BB190100BB190100BB190100BB19010038
S11380F0BB190100BB190100BB190100BB19010028
S113810009140200BB190100BB190100BB190100CD
S1138110BB190100BB190100BB190100BB19010007
S1138120BB190100BB190100BB190100BB190100F7
S1138130BB190100BB190100BB190100BB190100E7
S1138140BB190100BB190100BB190100BB190100D7
S1138150BB190100BB190100BB190100393402002D
S1138160BB190100BB190100BB190100BB190100B7
S1138170BB190100BB190100BB190100BB190100A7
S1138180BB190100291D0200BB190100BB19010024
S1138190BB190100BB190100BB190100BB19010087
S11381A0431D0200BB190100BB190100BB190100EA
S11381B0BB190100BB190100BB1901005D1D0200C0
S11381C0BB190100BB190100BB190100BB19010057
S11381D0BB190100BB190100BB190100BB19010047
S11381E0BB190100BB190100BB190100BB19010037
S11381F0BB190100BB190100BB190100BB19010027
S1138400FFFFFFFFFFFFFFFFFFFFFFFFFE3FFFFF39
S11390004FF000004FF000014FF000024FF000035A
S11390104FF000044FF000054FF000064FF000073A
S11390204FF000084FF000094FF0000A4FF0000B1A
S11390304FF0000C62B61EF02BFDFEE7DFF8680867
S1139040C07D002808D01620DFF8601808701620AC
S1139050DFF85C18087007E00120DFF8501808708A
S11390600120DFF84C180870704780B5DFF8440819
S11390700078C0F3C00010F00100DFF83C18097854
S1139080C1F3800111F00101884200F09D80DFF8F6
S113909028080078C0F38000C0B2002874D1DFF83B
S11390A01C08007850F00400DFF810180870012044
S11390B009F04DF841F2883009F048FC4FF4007093
S11390C0DFF8FC17086041F2883009F03FFCDFF854
S11390D0F407DFF8F41708600AF0E1FA0AF040FB3D
S11390E00AF0C8FD00200AF00EFF0122FF218A20A9
S11390F008F065FE202229218A2008F060FE4FF442
S11391000070DFF8C8170860462340F6F612022103
S113911001200BF069FCDFF8B807C07B08F045FFBD
S1139120DFF8AC07007C08F074FFDFF8A407407C8C
S113913008F0A5FFDFF89807807C08F0D4FFFFF75C
S11391407DFF09F08BFBDFF88C07DFF87C170860E4
S1139150DFF88407DFF8541709780C2202FB0100BA
S113916000688047002005E00021DFF8702780B206
S11391708154401C80B240F2A4618842F4DB002098
S1139180DFF85C17088011E0FFF758FF002008F0B3
S1139190DEFFDFF85007017840F6F6100BF0EFFF22
S11391A0DFF8441708600A2009F0D0FBDFF8040751
S11391B00078C0B2C008DFF80017097860F38201B4
S11391C0DFF8F40601703CE0DFF8E8060078C0F34D
S11391D0C000C0B2002834D009F040FB0FF011FCED
S11391E0DFF80807DFF8F016DFF8C42612780C233E
S11391F003FB021149688847DFF8B0160870DFF8EE
S1139200B0060078DFF8A4160978884219D0DFF890
S1139210C806DFF89C1609780C2202FB010080685E
S11392208047DFF888060078DFF884160870DFF8D6
S1139230A806DFF8781609780C2202FB0100006802
S1139240804701BD70B582B00400002506E0EDB290
S1139250285DDFF89C16EDB268546D1CEDB2032D49
S113926042DAEDB2285DDFF88816EDB2695C884217
S1139270F3D000260CE00020009001235EA2002120
S1139280EDB2E80050FA86F080B209F08FF8761C4F
S1139290F6B2082EDBDADFF85806EDB2285C0121BD
S11392A0B1400840EDB2295D0122B2400A40C0B28B
S11392B0D2B29042EBD0DFF83C0690F8A60010F052
S11392C0F001C0B251EA1011D2B2002AD3D000206A
S11392D00090012348A2C9B2EDB2E80050FA86F02A
S11392E080B209F063F8D2E773BD70B582B00400B0
S11392F0C9B200293FD1607CC0B20509607C10F07E
S1139300F0000543B4F805600AE000200090012352
S113931039A22900C9B2300080B209F047F8761C9E
S1139320B4F80700B6B28642EFD3B4F809600AE095
S113933000200090012330A22900C9B2300080B27D
S113934009F034F8761CB4F80B00B6B28642EFD3B9
S1139350B4F80D60B4F80F00B6B286424AD20020C9
S11393600090012324A22900C9B2300080B209F080
S11393701DF8761CEEE7607C0501607C10F00F00A0
S11393800543B4F805600AE00020009001231AA206
S11393902900C9B2300080B209F008F8761CB4F88C
S11393A00700B6B28642EFD3B4F809600AE00020A1
S11393B00090012310A22900C9B2300080B208F045
S11393C0F5FF761CB4F80B00B6B28642EFD3B4F8BE
S11393D00D600AE000200090012307A22900C9B211
S11393E0300080B208F0E2FF761CB4F80F00B6B289
S11393F08642EFD373BD00002000000010B50400C6
S1139400200009F0E9FB0A21200009F0A0FC10BDAE
S11394102DE9F0418AB00400DFF8C804017840F671
S1139420F6100BF0ACFEDFF8C0140860002008F062
S113943052FD0AF0C0FD0BF0ACFA0AF0E8FD002181
S1139440FF2008F052FF00250FE0DFF8AC04EDB276
S1139450B42101FB0500F6B25FF0FF3140F826109D
S1139460761CF6B22D2EF0DB6D1CEDB2042D65DA00
S113947006A8DFF88014E4B26D2202FB0411EDB2F9
S113948011EB05112D3110220FF036FB06AE30889A
S1139490000451D55A21707A09F04CF80022307B2F
S11394A0C0B201092800C0B209F091F80F22307B44
S11394B0C0B201092800C0B209F089F8307A0090DE
S11394C0F379B6F80520B6F803102800C0B209F005
S11394D046F8B07A10F00F02B07AC0B20109280041
S11394E0C0B209F08EF8B6F80D102800C0B208F02A
S11394F03AFFF07B01280DD100200090F079317AF9
S113950010FB01F3DBB220220021B6F80D0008F0B5
S1139510B4FF0CE000200090F079317A10FB01F3E5
S1139520DBB22022317BB6F80D0008F0A6FF012142
S11395302800C0B208F0D9FE002692E7002524E0F6
S1139540DFF8B003E4B26D2101FB0400EDB20521A4
S113955001FB0500B0F80300DFF8A013EDB221F819
S113956015000021009100230022DFF8601C80B266
S1139570172606FB0011681CC0B20BF0B9F90021D4
S1139580681CC0B20AF058FE6D1CEDB2082D80F2C2
S113959096804FF6FE70D949EDB221F81500D548F2
S11395A0E4B26D2101FB0400EDB2052101FB0500CD
S11395B0008807053F0D0104E6D54004C0D5CD4819
S11395C0E4B26D2101FB0400EDB2052101FB0500AD
S11395D090F80280002614E000210091002300226C
S11395E0DFF8E81B80B25FF0170C0CFB0011681C5D
S11395F0C0B20BF07DF90021681CC0B20AF01CFE59
S1139600761CF6B25FFA88F84645BDD201A8DFF8A9
S1139610C01BBFB2132202FB071113220FF06CFA16
S11396207F1C9DF8040002280AD0BDF8050001281B
S113963006D04FF6FE70B149EDB221F81500DFE710
S113964001A800F05DF980B24FF6FD718842D7D0D1
S113965080B24FF6FE718842D2D0A849EDB221F80B
S113966015009DF80410891F062904D90B3914D05C
S1139670891E12D0B0E701210091BDF80930BDF870
S11396800720DFF8481B80B25FF0170C0CFB0011B9
S1139690681CC0B20BF02CF9ADE701210091BDF8B4
S11396A01530BDF81320DFF8241B80B25FF0170CCF
S11396B00CFB0011681CC0B20BF01AF99BE70120E7
S11396C008F009FC0AF056FE012008F0D5FB0FF063
S11396D098F90AB0BDE8F0812DE9F04786B004009E
S11396E00D00002600E0761CF6B2082E80F2D88029
S11396F08048E4B26D2101FB0400F6B2052101FBB0
S11397000600008807053F0D80B210F44040B0F514
S1139710404FE8D17748E4B26D2101FB0400F6B272
S1139720052101FB060090F802805FF0000910E0BB
S11397300021701CC0B20AF01AFC0121701CC0B2D6
S11397400AF07CFF0121701CC0B20AF010FC19F170
S113975001095FFA89F95FFA88F8C145C3D201A803
S1139760DFF86C1ABFB2132202FB071113220FF0A9
S1139770C3F97F1C01A800F0C3F882469DF80400D9
S1139780022806D05948007CBDF8051080B28842F2
S1139790DDD11FFA8AFA4FF6FE708245D7D0DFF882
S11397A0340AF6B230F816001FFA8AFA5045CED0C1
S11397B01FFA8AFA4FF6FD70824504D1701CC0B2BC
S11397C00AF010FC3CE09DF80400801F062804D930
S11397D00B3814D0801E12D023E001200090BDF875
S11397E00930BDF80720DFF8E4091FFA8AFA1721C7
S11397F001FB0A01701CC0B20BF07AF820E00120D2
S11398000090BDF81530BDF81320DFF8C0091FFA29
S11398108AFA172101FB0A01701CC0B20BF068F828
S11398200EE00020009000230022DFF8A0091FFAB8
S11398308AFA172101FB0A01701CC0B20BF058F818
S11398400021701CC0B20AF0F7FCDFF88809F6B2F8
S113985020F816A0EDB2002D06D0022D10D009D3A9
S1139860032D3FF465AF72E70021701CC0B20AF00B
S1139870E5FE6CE70121701CC0B20AF0DFFE66E76A
S11398800021701CC0B20AF072FB0021701CC0B22F
S11398900AF0D4FE0121701CC0B20AF068FB56E73E
S11398A006B0BDE8F08700000000050095A4FF1F86
S11398B096A4FF1FD899FF1F9884FF1FB084FF1F31
S11398C00CF00F40C119010074A3FF1F3C90044029
S11398D05487FF1FBD190100407502007C8CFF1FD7
S11398E064A4FF1F707B0200209003406C98FF1F4C
S11398F0548AFF1FE43E06008487FF1F7087FF1F02
S1139900F8B504002078401E16D0401E5AD0401EE0
S113991000F0FE80C01E062840F294830A3800F04E
S11399202381401E00F0A981401E00F05B81401E8F
S113993000F0E78300F046BC6A46B4F80510B4F8BA
S11399400300C0B20FF064FA0500B4F80B00ADB226
S1139950A84206D2B4F80F00B4F80D100818461E39
S11399602EE0B4F80900ADB2854202D2B4F80F601B
S113997026E0B4F80B00B4F80910401AB4F80D103E
S113998090FBF1F0B4F80910ADB2A94203D2B4F8D7
S113999009106D1A00E00025ADB280B295FBF0F617
S11399A0B4F80D00401EB6B2B04206DAB4F80F00A7
S11399B0B4F80D100818461E02E0B4F80F0086191A
S11399C000F000BCDFF81008807BDFF80C18087486
S11399D0DFF80408857BB4F80300DFF8FC1748714E
S11399E0B4F80500DFF8F0178871ADB2002D0AD184
S11399F0B4F80D00DFF8E0178873DFF8DC07807B2C
S1139A00DFF8D4170874B4F80D00ADB2A84211D22F
S1139A100120DFF8C41788730120DFF8BC1708742D
S1139A20B4F80700002803D0B4F80900451C01E08D
S1139A30B4F80D50ADB2002D00D06D1EB4F80F0077
S1139A402E18B4F8070080B2070AB4F80750DFF8FC
S1139A508807807BFFB2B8422BD3DFF87C07807B7A
S1139A60EDB2854225D3B4F80F00B4F809100818F4
S1139A70461EDFF86407807BDFF85C17C97B8842E9
S1139A8036D0002007E04FF6FE71DFF84827C0B259
S1139A9022F81010401CC0B20828F4DBDFF83807A5
S1139AA0807BDFF83417C8730AF085FA0AF062FC89
S1139AB01EE0DFF82407807BDFF81C17C97B88428F
S1139AC016D0012007E04FF6FE71DFF80827C0B278
S1139AD022F81010401CC0B20828F4DBDFF8F806A6
S1139AE0807BDFF8F416C8730AF065FA0AF042FCCA
S1139AF0B4F8070000280AD0DFF8DC06807BEDB25A
S1139B00854204D2B4F80F00B4F809100E1859E3D2
S1139B10DFF8C4068578B4F80D00ADB2A84206D2C9
S1139B200120DFF8B4168870B4F80F6012E0ADB20B
S1139B30002D0BD1B4F80D00DFF89C168870B4F832
S1139B400F00B4F80D100818461E03E0B4F80F0017
S1139B502818461EDFF88006007B10F0010000285C
S1139B6001D04FF6FD762DE3B4F803000FF078FE34
S1139B7005006D00B4F805000FF072FE0543B4F85B
S1139B80070080B2000BADB2854204D1B4F80700DF
S1139B900605360D25E0B4F8090080B2000BADB21D
S1139BA0854204D1B4F809000605360D19E0B4F86D
S1139BB00B0080B2000BADB2854204D1B4F80B00A7
S1139BC00605360D0DE0B4F80D0080B2000BADB201
S1139BD0854204D1B4F80D000605360D01E04FF6B8
S1139BE0FE76EFE2B4F80300002843D0B4F8030093
S1139BF0401E80B2C500B4F8050080B2000ADFF848
S1139C00DC15ADB26854B4F80500DFF8D015ADB278
S1139C1069184870B4F8070080B2000ADFF8BC1570
S1139C20ADB269188870B4F80700DFF8B015ADB2AA
S1139C306918C870B4F8090080B2000ADFF89C15EE
S1139C40ADB269180871B4F80900DFF89015ADB227
S1139C5069184871B4F80B0080B2000ADFF87C156B
S1139C60ADB269188871B4F80B00DFF87015ADB2A5
S1139C706918C8714FF6FE76A4E2B4F80310B4F87C
S1139C80030080B2000AB4F80750B4F8072092B277
S1139C90120AC9B20E00012E45D0022E00F0D9805E
S1139CA0112E00F0D780122E00F0DA80132E00F06F
S1139CB0DD80142E00F0E080152E00F0E380162ED7
S1139CC000F0E680172E00F0E980182E00F0EC80FA
S1139CD0192E00F0EF801A2E00F0F2801B2E00F0F7
S1139CE0F5801C2E00F0F8801D2E00F0FA801E2E48
S1139CF000F0FC801F2E00F0FE80202E00F000817A
S1139D00212E00F00181222E00F00281232E00F08A
S1139D100381242E00F00481252E00F00581502EAD
S1139D2000F0068108E1B4F80560DFF8B434B6B297
S1139D30182707FB06335B7A13F00F03DBB2002B03
S1139D4006D0022B2FD00DD3042B5DD03ED379E067
S1139D50DFF89034DFF890743F88B6B216FA87F6CD
S1139D60F35C70E0DFF87C34DFF87C743F88B6B2D3
S1139D7016FA87F7FB5CDFF86874B6B25FF0180C6C
S1139D800CFB067CDCF80170BB4201D2002309E025
S1139D90DFF84C74B6B25FF0180C0CFB0677D7F8FA
S1139DA001609B1B4FE0DFF83C34DFF83C743F88D4
S1139DB0B6B2760016FA87F6DFF82C747F88F61BA5
S1139DC0DFF82474BF88F61BF35A3CE0DFF8143440
S1139DD0DFF814743F88B6B2B60016FA87F6DFF8D7
S1139DE008747F885FF0030C0CFB1766DFF8F873C8
S1139DF0BF885FF0030C0CFB1766DFF8EC73FF8879
S1139E00B6EB4706F3581EE0DFF8D833DFF8D87313
S1139E103F88B6B2B60016FA87F6DFF8CC737F88AF
S1139E205FF0030C0CFB1766DFF8BC73BF885FF0B0
S1139E30030C0CFB1766DFF8B073FF88B6EB47061C
S1139E40F35800E00023EB40012595406D1E2B40A4
S1139E5072E071E0DFF89453DFF8946335606BE0EF
S1139E60DFF89053DFF88863356065E0DFF88853E6
S1139E70DFF87C6335605FE0DFF88053DFF8706300
S1139E80356059E0DFF87853DFF86463356053E0F8
S1139E90DFF87053DFF8586335604DE0DFF868533E
S1139EA0DFF84C63356047E0DFF86053DFF8406368
S1139EB0356041E0DFF85853DFF8346335603BE048
S1139EC0DFF85053DFF82863356035E0DFF8485396
S1139ED0DFF81C6335602FE0DFF84053C44E356073
S1139EE02AE0DFF83C53C24E356025E0DFF83453F6
S1139EF0BF4E356020E0DFF83053BD4E35601BE0C7
S1139F00CA4DBB4E356017E0C94DB94E356013E0FC
S1139F10C84DB74E35600FE0C74DB54E35600BE008
S1139F20C64DB34E356007E0C54DB14E356003E014
S1139F30C44DAF4E3560FFE7C9B2112925DBB4F833
S1139F400510082391FBF3F7B4F80510082391FBDF
S1139F50F3F505FB1315D2B252FA85F109290BDB8F
S1139F60A3490968FFB279184B781B02A049096814
S1139F70FFB2795C0B4303E09D490968FFB27B5C47
S1139F80EB4001219140491E0B40B4F8091089B2FD
S1139F90090B89B2994204D1B4F809100E05360DA3
S1139FA019E0B4F80B1089B2090B89B2994204D1B3
S1139FB0B4F80B100E05360D0DE0B4F80D1089B28F
S1139FC0090B89B2994204D1B4F80D100E05360D6F
S1139FD001E04FF6FE76B6B240F6FE718E4201D134
S1139FE04FF6FE76B6B240F6FD718E4201D14FF6C1
S1139FF0FD76B6B24FF6FE718E4222D0B6B24FF65F
S113A000FD718E421DD0C0B200281AD08E49097845
S113A010C1F34011C9B200290AD08C490978491CFE
S113A0208A4A11708849097811F0DF01864A117053
S113A03086490978C0B211FA86F291FBF0F100FB6F
S113A0401126BFE020780B2805DA63488078217850
S113A0500818851F05E06048807821780818B0F159
S113A0600B05B4F8070000280FD179480088ADB279
S113A070854202D34FF6FD7642E0B4F80F007549ED
S113A080ADB231F815100E183AE0B4F80700012803
S113A0900FD171480088ADB2854202D34FF6FD76E8
S113A0A02EE0B4F80F006D49ADB231F815100E185A
S113A0B026E0B4F8070002280FD167484088ADB203
S113A0C0854202D34FF6FD761AE0B4F80F006449D6
S113A0D0ADB231F815100E1812E0B4F807000328D9
S113A0E00ED15D488088ADB2854202D34FF6FD762D
S113A0F006E0B4F80F005B49ADB231F815100E1844
S113A10060E0E07810F007014048394A1060B4F884
S113A1100500082290FBF2F7B4F80500082290FB32
S113A120F2F505FB120532480068FFB23B5CEB40D8
S113A130D80717D52E480068FFB2385C0122AA4020
S113A14090432B4A1268FFB2B8544748C9B2085C1E
S113A150C00707D54448C9B2085C50F00200424A1F
S113A160C9B28854B4F8090080B2000B80B23E4AE8
S113A170C9B28A5C904204D1B4F809000605360DD0
S113A1801FE0B4F80B0080B2000B80B2364AC9B2AB
S113A1908A5C904204D1B4F80B000605360D10E039
S113A1A0B4F80D0080B2000B80B22F4AC9B2895CAA
S113A1B0884204D1B4F80D000605360D01E04FF6CF
S113A1C0FE76FFE7300080B2F2BD0000000006001A
S113A1D0705806007087FF1F6C98FF1F6C8AFF1F62
S113A1E0FC1005007C8CFF1F300605006086FF1FF5
S113A1F07C8AFF1F6786FF1F6D86FF1F7086FF1F07
S113A2006A86FF1F7386FF1F7486FF1F7586FF1FF4
S113A2108986FF1F8D86FF1F9186FF1F9586FF1F6E
S113A2209986FF1F9E86FF1FA186FF1FA886FF1F1A
S113A230AD86FF1FA386FF1FB286FF1FB786FF1FD1
S113A240C286FF1FC499FF1F308CFF1F9AA4FF1FF3
S113A25080A4FF1F349DFF1FAC8AFF1F108BFF1FBC
S113A260888BFF1F008CFF1F5C8AFF1FE0B5B0F8CE
S113A2700F2092B2130A0A78D2B2120930328DF842
S113A28004200A7812F00F0230328DF805203A22A9
S113A2908DF806204A78D2B2120930328DF80720A0
S113A2A04A7812F00F0230328DF808203A228DF8E5
S113A2B009208A78D2B2120930328DF80A208978BE
S113A2C011F00F0130318DF80B1000210091DBB239
S113A2D001AA417CB0F80D0008F068F807BD3EB54E
S113A2E0B0F80F2092B2130A89B24FF4616291FB65
S113A2F0F2F2D2B20A2492FBF4F430348DF8044022
S113A300D2B20A2492FBF4F504FB152230328DF804
S113A31005203A228DF8062089B24FF4616291FB40
S113A320F2F402FB14123C2492FBF4F2D2B20A249B
S113A33092FBF4F430348DF80740D2B20A2492FB35
S113A340F4F504FB152230328DF808203A228DF8FA
S113A350092089B23C2291FBF2F402FB1412D2B21E
S113A3600A2192FBF1F130318DF80A10D2B20A21A0
S113A37092FBF1F401FB142130318DF80B10002114
S113A3800091DBB201AA417CB0F80D0008F00EF890
S113A39037BD00B585B0B0F80F2092B2130A0A7821
S113A3A0D2B2120930328DF804200A7812F00F026A
S113A3B030328DF805202D228DF806204A78D2B24D
S113A3C0120930328DF807204A7812F00F02303229
S113A3D08DF808202D228DF809208A78D2B212092E
S113A3E030328DF80A20897811F00F0130318DF860
S113A3F00B1000210091DBB201AA417CB0F80D00E2
S113A40007F0D4FF05B000BDF0B585B00400002509
S113A41042F21071B4F80F703A00D2B201A8FEF7FC
S113A420EDFFFFB2002F01D0012600E0002656FA0E
S113A43087F6B4F80F0080B216EB1026D6F10A00A6
S113A44001A9C0B24218B4F80D00002100913300F4
S113A450DBB2617C80B207F0A9FF002001E06D1C33
S113A460401CC0B20A2804D2C0B20119897C002958
S113A470F5D1B4F80D00301814F112020021009146
S113A4802B00DBB2617C80B207F090FF05B0F0BD19
S113A4902DE9F24F8CB00400150000275FF000098D
S113A4A002E07F1C19F101095FFA89F9B9F10A0F79
S113A4B006D25FFA89F919EB0400807C0028F0D1F8
S113A4C0DDF83080207801281BD006284BD00728DF
S113A4D000F05B82082800F0D282092800F00B8388
S113A4E00A2800F0CE830B2800F041840C2800F0E9
S113A4F0F9830E2800F0AD84102800F06E8400F07B
S113A50031BEB4F80F603200D2B2414606A8FEF75D
S113A51075FFF6B2002E01D0012500E00025751963
S113A520B4F80F0080B2000A4519D5F10A0006A953
S113A530C0B24218002000902B00DBB2617CB4F85A
S113A5400D0007F033FF002000903B00DBB214F154
S113A5501202617CB4F80D0050FA85F080B207F065
S113A56025FF00F0FFBDB4F8090080B25FEA1029AE
S113A5705FFA89F9B9F1000F3AD1B4F80FB0B4F821
S113A5800F0080B25FEA102A002000904346B4F81E
S113A5900320062106A802F0D7F806005FFA8AFA1B
S113A5A0CDF800A05B46DBB23200D2B201A906A806
S113A5B008F044FB06003100C9B201A808F0E6FB2C
S113A5C0002000903300DBB201AA617CB4F80D00D6
S113A5D007F0ECFE002000903B00DBB214F1120205
S113A5E0617CB4F80D0050FA86F080B207F0DEFE0C
S113A5F05FFA89F9B9F1010F35D1B4F80F0080B2CF
S113A6005FEA102ADFF8640BB4F80310182202FB87
S113A6100100407A10F00F0B414601A808F083FABC
S113A6205FFA8BFBBBF1000F08D0BBF1020F09D01E
S113A63006D3BBF1040F09D006D308E0092606E0CF
S113A640092604E0062602E0032600E00026002096
S113A65000905346DBB201A8F6B23218617CB4F81C
S113A6600D0007F0A3FE5FFA89F9B9F1020F35D1A5
S113A670B4F80FB0B4F80F0080B25FEA102A0020DB
S113A68000904346B4F80320062106A802F05CF8C3
S113A69006005FFA8AFACDF800A05B46DBB232000E
S113A6A0D2B201A906A808F0C9FA06000020009059
S113A6B03300DBB201AA617CB4F80D0007F076FE2A
S113A6C0002000903B00DBB214F11202617CB4F86C
S113A6D00D0050FA86F080B207F068FE5FFA89F93F
S113A6E0B9F1030F27D1B4F80F0080B25FEA102A42
S113A6F04146C9B201A808F040FA00200090534630
S113A700DBB201A85FFA8AFAB0EB0A0010F1080282
S113A710617CB4F80D0007F049FE002000903B0076
S113A720DBB214F11202617CB4F80D0050FA8AF025
S113A73080B207F03BFE5FFA89F9B9F1040F04D146
S113A7400C9989B22000FFF7CAFD5FFA89F9B9F1C3
S113A750050F40F01981EDB2002D3BD1B4F80FB0D4
S113A760B4F80F0080B25FEA102A0020009043463C
S113A770B4F80320062106A801F0E6FF06005FFAFC
S113A7808AFACDF800A05B46DBB23200D2B201A94E
S113A79006A808F053FA06003100C9B201A808F06F
S113A7A0F5FA002000903300DBB201AA617CB4F812
S113A7B00D0007F0FBFD002000903B00DBB214F11C
S113A7C01202617CB4F80D0050FA86F080B207F0F2
S113A7D0EDFDD9E0EDB2102D3BD1B4F80FB0B4F8D3
S113A7E00F0080B25FEA102A002000900023B4F822
S113A7F00320062106A801F0A7FF06005FFA8AFAE3
S113A800CDF800A05B46DBB23200D2B201A906A8A3
S113A81008F014FA06003100C9B201A808F0B6FA2B
S113A820002000903300DBB201AA617CB4F80D0073
S113A83007F0BCFD002000903B00DBB214F11202D3
S113A840617CB4F80D0050FA86F080B207F0AEFDDA
S113A8509AE0EDB2082D28D1B4F80FB0B4F80F0087
S113A86080B25FEA102A1AEB0B065FF0000BF6B217
S113A870052E0CDBB6F1040B002000905B46DBB226
S113A880DFF8EC28617CB4F80D0007F08FFD0020A0
S113A89000900423DFF8DC28617CB4F80D0050FA42
S113A8A08BF080B207F082FD6EE0EDB2182D28D156
S113A8B0B4F80FB0B4F80F0080B25FEA102A1AEBB4
S113A8C00B065FF0000BF6B2052E0CDBB6F1040BA1
S113A8D0002000905B46DBB2DFF89428617CB4F87A
S113A8E00D0007F063FD002000900423DFF88828A2
S113A8F0617CB4F80D0050FA8BF080B207F056FD7D
S113A90042E0EDB2042D28D1B4F80FB0B4F80F0032
S113A91080B25FEA102A1AEB0B065FF0000BF6B266
S113A920052E0CDBB6F1040B002000905B46DBB275
S113A930DFF83C28617CB4F80D0007F037FD0020F7
S113A94000900423DFF83428617CB4F80D0050FA39
S113A9508BF080B207F02AFD16E0EDB2A80713D5FC
S113A960B4F80FB0B4F80F0080B25FEA102A1AEB03
S113A9700B06002000903300DBB2DFF80428617C72
S113A980B4F80D0007F012FDECE3B4F80FB0B4F81E
S113A9900F0080B25FEA102A002000904346B4F80A
S113A9A00320072106A801F0CFFE06005FFA8AFA09
S113A9B0CDF800A05B46DBB23200D2B201A906A8F2
S113A9C008F03CF906003100C9B201A808F0DEF92C
S113A9D0B4F803007F38102838D2DFF8A807B4F899
S113A9E00310081810F87F1C072011FB00F189B22E
S113A9F041450BD2DFF8900700880121B4F8032009
S113AA007F3A91400843DFF880170880DFF8780721
S113AA1000880121B4F803207F3A914008420AD00B
S113AA20002000903300DBB201AA3C21B4F80D00F1
S113AA3007F0BCFC14E0002000903300DBB201AA54
S113AA403A21B4F80D0007F0B1FC09E000200090B1
S113AA503300DBB201AA617CB4F80D0007F0A6FC58
S113AA60002000903B00DBB214F11202617CB4F8C8
S113AA700D0050FA86F080B207F098FC72E3B4F847
S113AA800FB0B4F80F0080B25FEA102A00200090E3
S113AA904346B4F80320082106A801F055FE060039
S113AAA05FFA8AFACDF800A05B46DBB23200D2B27C
S113AAB001A906A808F0C2F806003100C9B201A82D
S113AAC008F064F9002000903300DBB201AA617C35
S113AAD0B4F80D0007F06AFC002000903B00DBB2E4
S113AAE014F11202617CB4F80D0050FA86F080B2C1
S113AAF007F05CFC36E3B4F80300012810D0022808
S113AB0024D003284ED0042836D0052876D0062831
S113AB105ED0092800F08880802800F09B80AFE098
S113AB200822DFF86816DFF868060EF0BFFF8046DB
S113AB30B8F1000F09D0002000900823DFF8502658
S113AB40617CB4F80D0007F031FC99E00822DFF8CD
S113AB504416DFF844060EF0A9FF8046B8F1000F52
S113AB6009D0002000900823DFF82C26617CB4F87B
S113AB700D0007F01BFC83E00822DFF82016DFF845
S113AB8020060EF093FF8046B8F1000F09D0002094
S113AB9000900823DFF80826617CB4F80D0007F064
S113ABA005FC6DE00822DFF8FC15DFF8FC050EF06B
S113ABB07DFF8046B8F1000F09D0002000900823E3
S113ABC0DFF8E425617CB4F80D0007F0EFFB57E0F3
S113ABD00822DFF8D815DFF8D8050EF067FF8046A5
S113ABE0B8F1000F09D0002000900823DFF8C02539
S113ABF0617CB4F80D0007F0D9FB41E00822DFF8CE
S113AC00B415DFF8B4050EF051FF8046B8F1000F1B
S113AC1009D0002000900823DFF89C25617CB4F85B
S113AC200D0007F0C3FB2BE00822DFF89015DFF8D6
S113AC3090050EF03BFF8046B8F1000F09D00020CC
S113AC4000900823DFF87825617CB4F80D0007F044
S113AC50ADFB15E00822DFF86C15DFF86C050EF08B
S113AC6025FF8046B8F1000F09D00020009008238A
S113AC70DFF85425617CB4F80D0007F097FBFFE77B
S113AC8070E2B4F80F603200D2B2414606A8FEF773
S113AC90B5FBF6B2002E01D0012500E000257519A0
S113ACA0B4F80F0080B2000A4519D5F10A0006A9CC
S113ACB0C0B24218002000902B00DBB2617CB4F8D3
S113ACC00D0007F073FB002000903B00DBB214F191
S113ACD01202617CB4F80D0050FA85F080B207F0DE
S113ACE065FB3FE2B4F80F603200D2B2414606A8D9
S113ACF0FEF784FBDFF8D40480450FD15FF0000930
S113AD0007E0202006A95FFA89F909F8010019F182
S113AD1001095FFA89F9B9F1140FF2DBF6B2002EDA
S113AD2001D0012500E000257519B4F80F0080B2A8
S113AD30000A4519D5F10A0006A9C0B2421800203C
S113AD4000902B00DBB2617CB4F80D0007F02EFB01
S113AD50002000903B00DBB214F11202617CB4F8D5
S113AD600D0050FA85F080B207F020FBFAE1B4F848
S113AD7007805FF000091AE006A8EDB2401B10F14D
S113AD800A02002000902B00DBB2617CB4F80D00B5
S113AD905FFA89F9B4F8055005FB09F515FA80F056
S113ADA080B207F003FB18F1010819F10109B4F8A6
S113ADB003005FFA89F9C0B281450DD200224146F1
S113ADC089B206A8FEF71AFBB4F80F0080B2050A90
S113ADD0EDB2042DD0DBC5E1C4E1B4F80FB0B4F892
S113ADE00F0080B25FEA102A002000904346B4F8B6
S113ADF00320062106A801F0A7FC06005FFA8AFAE0
S113AE00CDF800A05B46DBB23200D2B201A906A89D
S113AE1007F014FF06003100C9B201A807F0B6FF1D
S113AE20002000903300DBB201AA617CB4F80D006D
S113AE3007F0BCFA002000903B00DBB214F11202D0
S113AE40617CB4F80D0050FA86F080B207F0AEFAD7
S113AE5088E1B4F80320B4F80730B4F8070080B2EE
S113AE60000AD2B21100012945D0022900F0B780AE
S113AE70112900F0B580122900F0B680132900F0E2
S113AE80B780142900F0B880152900F0B98016297C
S113AE9000F0BA80172900F0BB80182900F0BC80AC
S113AEA0192900F0BD801A2900F0BE801B2900F08A
S113AEB0BF801C2900F0C0801D2900F0C1801E291C
S113AEC000F0C2801F2900F0C380202900F0C48054
S113AED0212900F0C580222900F0C680232900F032
S113AEE0C780242900F0C880252900F0C980502992
S113AEF000F0CA80CCE0B4F805109C4D89B2182645
S113AF0006FB01556D7A15F00F0B5FFA8BFBBBF155
S113AF10000F08D0BBF1020F17D00DD3BBF1040F03
S113AF203BD022D351E0AA4DAA4E368889B211FAF9
S113AF3086F111F805804AE0A54DA64E368889B2FF
S113AF4011FA86F111F8058041E0A14DA14E368831
S113AF5089B2490011FA86F19E4E7688891B9D4E6E
S113AF60B688891B31F8058031E0994D994E3688B1
S113AF7089B2890011FA86F1964E7688032707FB79
S113AF801611944EB688032707FB1611914EF688C6
S113AF90B1EB460151F8058019E08D4D8D4E368890
S113AFA089B2890011FA86F18A4E7688032707FB55
S113AFB01611884EB688032707FB1611854EF688AE
S113AFC0B1EB460151F8058001E05FF0000838FA62
S113AFD003F801218140491E11EA080858E057E0AE
S113AFE07D497E4B196053E07D497C4B19604FE0ED
S113AFF07C497A4B19604BE07B49784B196047E0F8
S113B0007A49764B196043E07949744B19603FE003
S113B0107849724B19603BE07749704B196037E00F
S113B02076496E4B196033E075496C4B19602FE01B
S113B03074496A4B19602BE07349684B196027E027
S113B0407249664B196023E07149644B19601FE033
S113B0507049624B19601BE06F49604B196017E03F
S113B0606E495E4B196013E06D495C4B19600FE04B
S113B0706C495A4B19600BE06B49584B196007E057
S113B0806A49564B196003E06949544B1960FFE75C
S113B090D2B2112A2CDBB4F80510082291FBF2F28B
S113B0A0B4F80530082593FBF5F101FB1531C0B266
S113B0B050FA81F3092B0EDB484B1B68D2B2D3182C
S113B0C093F801805FEA0828444B1B68D2B2D25C33
S113B0D052EA080804E0414B1B68D2B212F803801C
S113B0E038FA01F8012111FA00F0401E10EA0808AC
S113B0F0B4F8090080B2000A80B2404515D1607AE4
S113B10010F00F00617A11F0F005EDB22D09002165
S113B11000912B00DBB2C0B2001910F11202617C65
S113B120B4F80D0007F042F91BE0B4F80B0080B24C
S113B130000A80B2404514D1E07A10F00F00E17AA1
S113B14011F0F005EDB22D09002100912B00DBB2C6
S113B150C0B2001910F11202617CB4F80D0007F0BE
S113B16025F9FFE70DB0BDE8F08F0000FC100500E5
S113B170087B0200107B0200187B0200207B020087
S113B180AC7A0200388CFF1F64A4FF1F1484FF1FD5
S113B190CC86FF1F1F84FF1FD486FF1F2A84FF1F36
S113B1A0E486FF1F3584FF1FDC86FF1F4084FF1FDA
S113B1B0EC86FF1F4B84FF1FF486FF1F5684FF1F7E
S113B1C0FC86FF1F6184FF1F0487FF1FFEFFFF0033
S113B1D07C8CFF1F300605006086FF1F7C8AFF1FE2
S113B1E06786FF1F6D86FF1F7086FF1F6A86FF1F1D
S113B1F07386FF1F7486FF1F7586FF1F8986FF1FD6
S113B2008D86FF1F9186FF1F9586FF1F9986FF1F5E
S113B2109E86FF1FA186FF1FA886FF1FAD86FF1F06
S113B220A386FF1FB286FF1FB786FF1FC286FF1FBC
S113B230C499FF1F2DE9F14F8AB0DFF8980D007C07
S113B240DFF8901D497B884253D0DFF8880D007CDD
S113B250DFF8801D48735FF0000815E0DFF8E40DA7
S113B2605FFA88F8B42101FB08005FFA8AFA5FF0FC
S113B270FF3140F82A101AF1010A5FFA8AFABAF18A
S113B2802D0FEBDB18F101085FFA88F8B8F1040F11
S113B2902FDADFF8B40D9DF828106D2202FB0100AF
S113B2A05FFA88F810EB08102D30018809041DD5C9
S113B2B0C17B01290DD100210091C179027A11FBD2
S113B2C002F3DBB220220021B0F80D0007F0D5F81C
S113B2D00CE000210091C179027A11FB02F3DBB288
S113B2E02022017BB0F80D0007F0C7F85FF0000AD8
S113B2F0C3E75FF000083EE019F101091AF1010A01
S113B3009DF804005FFA8AFA824532D21FFA8BFB59
S113B310BBF5127F0EDD02A8DFF8301D1FFA8BFB90
S113B3201C2202FB0B11DFF8282D51181C220DF0F2
S113B330E3FB0AE002A8DFF81C1D1FFA8BFB1C22AA
S113B34002FB0B111C220DF0D7FB1BF1010B00219A
S113B350BDF80900DFF87C2C527B92B2904203D0F6
S113B3609DF808000A28C9D15FFA89F9B9F12D0FAF
S113B37032DB18F101085FFA88F8B8F1040F80F2A3
S113B3805E86DFF8C40C9DF828106D2202FB0100D4
S113B3905FFA88F810EB0810B0F82D005FEA005B44
S113B3A05FEA1B5BDFF8A01C9DF828206D2303FBDC
S113B3B002115FFA88F811EB081191F82F108DF83B
S113B3C0041080B210F44040B0F5404FD1D15FF08A
S113B3D000095FF0000A93E79DF80800012826D0D1
S113B3E0022800F00784032800F0B683042800F044
S113B3F07584052800F0C184062800F0F28007282F
S113B40000F04583082800F06683092800F09D8336
S113B4100A2800F0B7840B2800F056850C2800F0A9
S113B42073850E2800F038840F283AD064E7BDF8FD
S113B4300D00082290FBF2F3002011E00902DFF86E
S113B440242DBDF80BC0DBB213FA8CFCC0B2BCEBEC
S113B450000C1CEB020212F8012C51FA82F1401C80
S113B460C0B2DBB29842E9D3DFF8D80B5FFA88F8B0
S113B470B42202FB08005FFA89F950F829008842D7
S113B4800ED0DFF8C00B5FFA88F8B42202FB080084
S113B4905FFA89F940F82910002202A8FEF7F8FFA4
S113B4A02AE7BDF80B00DFF8C01C80B2182202FBAB
S113B4B00011497A11F00F03DBB2002B06D0022BE6
S113B4C018D00DD3042B44D027D35DE0DFF8941CAF
S113B4D0DFF8982C128880B210FA82F0471853E0F3
S113B4E0DFF8801CDFF8842C128880B210FA82F016
S113B4F0471849E0DFF86C1CDFF8702C128880B222
S113B500400010FA82F0DFF8642C5288801ADFF8C9
S113B5105C2C9288801A471836E0DFF8481CDFF864
S113B5204C2C128880B2800010FA82F0DFF83C2C98
S113B5305288032303FB1200DFF8302C9288032384
S113B54003FB1200DFF8242CD288B0EB420047182A
S113B5501AE0DFF8101CDFF8142C128880B2800087
S113B56010FA82F0DFF8042C5288032303FB120044
S113B570DFF8F82B9288032303FB1200DFF8EC2B8F
S113B580D288B0EB42004718DFF8B80A5FFA88F8AF
S113B590B42101FB08005FFA89F950F82900DFF8AB
S113B5A0D01B497988421BD0DFF8980A5FFA88F8E3
S113B5B0B42101FB08005FFA89F9DFF8B41B49796B
S113B5C040F82910BDF8170080B2030A002000904B
S113B5D0DBB23A009DF81910BDF8150006F0E6FE3E
S113B5E08AE6BDF80B00BDF81120D2B2022A01D1BF
S113B5F05FF0FF31DFF8703B80B25FF0180C0CFB9A
S113B60000335B7A13F00F03DBB2002B05D0BDF8D7
S113B6100F50ADB22E0ABDF80F50DBB2002B07D08D
S113B620022B4DD010D3042B00F0878062D3A6E008
S113B630DFF8304BDFF834CBBCF800C080B210FA2E
S113B6408CFC1CF804409AE0F6B2B6F10904082C0C
S113B6500BD2DFF8104BDFF814CBBCF800C080B27B
S113B66010FA8CFC3CF8044029E0F6B2212E1BDBD6
S113B670203EDFF8F04ADFF8F4CABCF800C080B21C
S113B68010FA8CFC1CEB040464782402DFF8D4CA9E
S113B690DFF8D8EABEF800E080B210FA8EFE1EF899
S113B6A00CC05CEA04040AE0DFF8B84ADFF8BCCA5C
S113B6B0BCF800C080B210FA8CFC1CF804405EE0B8
S113B6C0DFF8A04ADFF8A4CABCF800C080B25FEA81
S113B6D0400E1EFA8CFCDFF894EABEF802E0BCEBE4
S113B6E00E0CDFF888EABEF804E0BCEB0E0C3CF864
S113B6F0044044E0DFF86C4A0094DFF8704A248880
S113B70080B25FEA800C1CFA84FEDFF8604AB4F869
S113B71002C0032404FB1CEEDFF8504AB4F804C052
S113B720032404FB1CE4DFF844CABCF806C0B4EBF1
S113B7304C0C009C5CF8044021E0DFF8284A00949B
S113B740DFF8284A248880B25FEA800C1CFA84FE61
S113B750DFF8184AB4F802C0032404FB1CEEDFF837
S113B7600C4AB4F804C0032404FB1CE4DFF8FCC94D
S113B770BCF806C0B4EB4C0C009C5CF80440DBB293
S113B780002B04D0EC400123B3405B1E1C40D2B21A
S113B790002A2BD12100401CBDF80D3080B2834219
S113B7A0BFF428AFD2B2032A40F09C80BDF80D004C
S113B7B0DFF8B43980B25FF0180C0CFB00335B7A0D
S113B7C013F00F03DBB2002B06D0022B35D02AD3A3
S113B7D0042B63D044D37EE0DFF88839DFF88C494A
S113B7E0248880B210FA84F0C45C74E0D2B2012AD6
S113B7F003D1A142CFD22100CDE7D2B2022A03D194
S113B8008C42C8D22100C6E7D2B2032A01D121005A
S113B810C8E7D2B2042A01D12100C3E7D2B2052A73
S113B820B9D12100BEE7DFF83C39DFF8404924886C
S113B83080B210FA84F0C45C4DE0DFF82839DFF8F8
S113B8402C49248880B2400010FA84F0DFF81C49A7
S113B8506488001BDFF81449A488001BC45A3AE02A
S113B860DFF80039DFF80449248880B2800010FA38
S113B87084F0DFF8F84864885FF0030C0CFB1400D4
S113B880DFF8E848A4885FF0030C0CFB1400DFF831
S113B890DC48E488B0EB4400C4581CE0DFF8C4384A
S113B8A0DFF8C848248880B2800010FA84F0DFF8FA
S113B8B0BC4864885FF0030C0CFB1400DFF8AC4850
S113B8C0A4885FF0030C0CFB1400DFF8A048E488A4
S113B8D0B0EB4400C458FF2C02D1032041439BE049
S113B8E0490099E0D2B2042A78D1BDF80D00DFF8FE
S113B8F0783880B25FF0180C0CFB00335B7A13F0DD
S113B9000F03DBB2002B06D0022B18D00DD3042B6F
S113B91046D027D380E0DFF84C38DFF8504824883D
S113B92080B210FA84F0C45C76E0DFF83838DFF8CF
S113B9303C48248880B210FA84F0C45C6CE0DFF8E0
S113B9402438DFF82848248880B2400010FA84F0B4
S113B950DFF818486488001BDFF81048A488001B2F
S113B960C45A59E0DFF8FC37DFF80048248880B275
S113B970800010FA84F0DFF8F44764885FF0030C69
S113B9800CFB1400DFF8E447A4885FF0030C0CFB05
S113B9901400DFF8D847E488B0EB4400C4583BE017
S113B9A0DFF8C037DFF8C447248880B2800010FA7B
S113B9B084F0DFF8B84764885FF0030C0CFB1400D4
S113B9C0DFF8A847A4885FF0030C0CFB1400DFF831
S113B9D09C47E488B0EB4400C4581DE0D2B2052A69
S113B9E019D1DFF8340DDFF8343D1860BDF80D00CF
S113B9F0082390FBF3F0BDF80D30082493FBF4F515
S113BA0005FB1435DFF8143D1B68C0B2C45C2C413F
S113BA1014F0010400E00024D2B2042A10D1DFF8AB
S113BA2024065FFA88F8B42202FB08005FFA89F959
S113BA3040F829102200D2B202A8FEF729FD25E021
S113BA40D2B2052A06D1002C20D0002202A8FEF78B
S113BA501FFD1BE0DFF8EC055FFA88F8B42202FB57
S113BA6008005FFA89F950F8290088420ED0DFF8FF
S113BA70D4055FFA88F8B42202FB08005FFA89F95A
S113BA8040F82910002202A8FEF702FD34E4BDF8B4
S113BA900B00DFF88C1C80B231F81010DFF8A4051D
S113BAA05FFA88F8B42202FB08005FFA89F950F8BB
S113BAB0290088420ED0DFF88C055FFA88F8B4229A
S113BAC002FB08005FFA89F940F82910002202A855
S113BAD0FEF7DEFC10E4BDF80B0080B2012804D0B0
S113BAE015D303280FD007D311E0DFF8380C4068D2
S113BAF00A21B0FBF1F10AE0DFF8280C00680A2102
S113BB00B0FBF1F103E0DFF8200CD0F8BC10DFF853
S113BB1034055FFA88F8B42202FB08005FFA89F959
S113BB2050F8290088420ED0DFF818055FFA88F82B
S113BB30B42202FB08005FFA89F940F829100022B8
S113BB4002A8FEF7A5FCFFF7D7BB0022002102A83C
S113BB50FEF79EFCFFF7D0BBBDF80B00012821D1F6
S113BB60DFF8C80B807910F00101DFF8D8045FFA20
S113BB7088F8B42202FB08005FFA89F950F829001A
S113BB80884235D0DFF8BC045FFA88F8B42202FB9F
S113BB9008005FFA89F940F82910C9B202A8FDF734
S113BBA0A4FB25E0BDF80B00022821D1DFF87C0BB3
S113BBB08079C0F34001C9B2DFF888045FFA88F8DD
S113BBC0B42202FB08005FFA89F950F82900884280
S113BBD00ED0DFF870045FFA88F8B42202FB080084
S113BBE05FFA89F940F82910C9B202A8FDF77DFB74
S113BBF0FFF782BBBDF80B0080B27F2823D1DFF8AA
S113BC0044045FFA88F8B42101FB08005FFA89F95B
S113BC1050F82900DFF81C1B497988423AD0DFF834
S113BC2024045FFA88F8B42101FB08005FFA89F95B
S113BC30DFF8001B497940F82910DFF8FC1A02A844
S113BC40FEF714FB26E080B280380A2822D3DFF8FE
S113BC50F4035FFA88F8B42101FB08005FFA89F95C
S113BC6050F82900DFF808154979884212D0DFF826
S113BC70D4035FFA88F8B42101FB08005FFA89F95C
S113BC80DFF8EC14497940F82910DFF8B01A02A85B
S113BC90FEF7ECFAFFF730BBDFF8A8035FFA88F889
S113BCA0B42202FB08005FFA89F950F82900DFF892
S113BCB0C0245279904211D0DFF888035FFA88F8E3
S113BCC0B42202FB08005FFA89F9DFF8A424527950
S113BCD040F82920002202A8FEF7DAFBBDF80B0089
S113BCE080B27F2822D1DFF85C035FFA88F8B421A0
S113BCF001FB08005FFA89F950F82900DFF8341ACB
S113BD008978884237D0CF485FFA88F8B42101FB9C
S113BD1008005FFA89F9DFF81C1A897840F82910BD
S113BD20DFF8101A02A8FEF734FB24E080B2803852
S113BD300A2820D3C3485FFA88F8B42101FB08001D
S113BD405FFA89F950F82900DFF8241489788842C9
S113BD5011D0BC485FFA88F8B42101FB08005FFAEF
S113BD6089F9DFF80C14897840F82910DFF80014F9
S113BD7002A8FEF70EFBFFF7BFBA02A8FEF744FBCA
S113BD80FFF7BABABDF80B0080B2012811D0C0F099
S113BD907F80032813D00FD3052825D020D307286C
S113BDA038D033D309284BD046D30B285ED059D38F
S113BDB06EE08848817B6BE08648817868E085483E
S113BDC080780521B0FBF1F182488078052290FB50
S113BDD0F2F302FB1300002800D0491C491C57E071
S113BDE0DFF85C09018853E0DFF854090088052175
S113BDF0B0FBF1F1DFF848090088052290FBF2F36B
S113BE0002FB1300002800D0491C41E0DFF834098C
S113BE1001883DE0DFF82C0900880521B0FBF1F131
S113BE20DFF820090088052290FBF2F302FB1300DF
S113BE30002800D0491C2BE0DFF80809418827E0DE
S113BE40DFF8000940880521B0FBF1F1DFF8F408C0
S113BE504088052290FBF2F302FB1300002800D077
S113BE60491C15E0DFF8DC08818811E0DFF8D4080C
S113BE7080880521B0FBF1F1DFF8C808808805222D
S113BE8090FBF2F302FB1300002800D0491CFFE7EB
S113BE906C485FFA88F8B42202FB08005FFA89F95B
S113BEA050F8290088420DD066485FFA88F8B42219
S113BEB002FB08005FFA89F940F82910002202A861
S113BEC0FEF7E6FAFFF718BA5E485FFA88F8B4227C
S113BED002FB08005FFA89F950F829003D4A127CF8
S113BEE090420FD057485FFA88F8B42202FB08004A
S113BEF05FFA89F9374A127C40F82920002202A807
S113BF00FEF7C6FAFFF7F8B932488078BDF80D207D
S113BF101018BDF80B2092B2150ABDF80B60EDB2F3
S113BF20012D22D1DFF85C1D80B251F82010F6B249
S113BF30002E02D180B2411C0EE0F6B2012E03D1D4
S113BF40090C11F01F0107E0F6B2022E04D18CB2E5
S113BF50490911F4E0212143DFF8E827128880B26F
S113BF60904250D3DFF8201D4DE0EDB2022D22D1D6
S113BF70DFF8181D80B251F82010F6B2002E02D15D
S113BF8080B2411C0EE0F6B2012E03D1090C11F06F
S113BF901F0107E0F6B2022E04D18CB2490911F454
S113BFA0E0212143DFF89C27528880B290422AD3B3
S113BFB0DFF8D41C27E0EDB2032D24D1DFF8D01C28
S113BFC080B251F82010F6B2002E05D180B2411C87
S113BFD011E000BF6C98FF1FF6B2012E03D1090CCB
S113BFE011F01F0107E0F6B2022E04D18CB2490908
S113BFF011F4E0212143DFF84C27928880B290426B
S113C00001D3DFF8841C0F485FFA88F8B42202FBDE
S113C01008005FFA89F950F8290088420DD00948D0
S113C0205FFA88F8B42202FB08005FFA89F940F845
S113C0302910002202A8FEF72BFAFFF75DB90BB016
S113C040BDE8F08F8487FF1FE43E060030C706007A
S113C05004C0FFFF34870600F0B5C7B004000D002C
S113C06016001F0002A8DFF8E81C40F20D120CF0C5
S113C07043FDE4B2200001280CD0022818D0032884
S113C08033D0042822D005284CD006283CD00928D7
S113C09056D064E0FFB20197F6B200962B00DBB2F3
S113C0A0DFF8B02C02A92000C0B200F063F856E01B
S113C0B0FFB20197F6B200962B00DBB2DFF8982CA2
S113C0C00BA92000C0B200F055F848E0FFB2019778
S113C0D0F6B200962B00DBB2DFF8802C0DF17A016A
S113C0E02000C0B200F046F839E0FFB20197F6B282
S113C0F000962B00DBB2DFF8682C0DF1460120001E
S113C100C0B200F037F82AE0FFB20197F6B2009609
S113C1102B00DBB2DFF84C2C18A92000C0B200F0D1
S113C12029F81CE0FFB20197F6B200962B00DBB2AF
S113C130DFF8342C25A92000C0B200F01BF80EE073
S113C140FFB20197F6B200962B00DBB2DFF81C2C8D
S113C1500DF1AE012000C0B200F00CF8FFE747B0CB
S113C160F0BD00007C8CFF1FFC10050030060500AC
S113C170209DFF1F2DE9F24F82B0040015001E0020
S113C18000200021E4B2012C01D1122005E0E4B228
S113C190092C01D1062000E00D2000220BE0DFF87D
S113C1A0D03BD35C575DBB4204D0515DDFF8C03B4C
S113C1B0D1540121521CC0B28242F0DBC9B2002921
S113C1C000F0A8825FF03008701E1A2110FB01F7FE
S113C1D00C98FFB2C0B2874280F09C82C01B8DF8DD
S113C1E005009DF805001B2802DB1A208DF80500C8
S113C1F05FF0000901E019F101099DF805005FFAFB
S113C20089F9814580F0DF815FFA89F959FA87F06D
S113C210022190FBF1F05FFA89F959FA87F20223BF
S113C22092FBF3F101FB1321D1F10101C9B28900A1
S113C230029AC0B210F802A05AFA01FA1AF00F0AD0
S113C2405FFA89F959FA87F0042190FBF1F05FFA5B
S113C25089F959FA87F2042392FBF3F101FB1321C4
S113C260C9B24900C0B210F805B05BFA01FB1BF07B
S113C270030B9DF8340001280DD100200090012308
S113C280ACA258F00C01C9B25FFA89F9484680B2F1
S113C29006F08CF8AFE75FFA8AFABAF1010F60D1C1
S113C2A05FFA8BFBBBF1000F28D0BBF1020F36D035
S113C2B013D3BBF1030F43D104208DF804000020F5
S113C2C00090012301AA58F00A01C9B25FFA89F962
S113C2D0484680B206F06AF882E005208DF8040032
S113C2E000200090012301AA58F00C01C9B25FFAA2
S113C2F089F9484680B206F059F871E003208DF8B8
S113C300040000200090012301AA58F00F01C9B2D3
S113C3105FFA89F9484680B206F048F860E00620E2
S113C3208DF8040000200090012301AA58F00C01AC
S113C330C9B25FFA89F9484680B206F037F84FE08F
S113C34020208DF8040000200090012301AA58F059
S113C3500C01C9B25FFA89F9484680B206F026F8A2
S113C3603EE05FFA8AFABAF1020F39D15FFA8BFB29
S113C370BBF1000F13D0BBF1010F21D101208DF8C7
S113C380040000200090012301AA58F00A01C9B258
S113C3905FFA89F9484680B206F008F820E00220E6
S113C3A08DF8040000200090012301AA58F00F0129
S113C3B0C9B25FFA89F9484680B205F0F7FF0FE089
S113C3C020208DF8040000200090012301AA58F0D9
S113C3D00C01C9B25FFA89F9484680B205F0E6FF5C
S113C3E05FFA8AFABAF1030F7BD10020E4B2012C80
S113C3F009D03BD3032C1BD007D3052C2CD00DD351
S113C400062C1FD032E0002030E0DFF8E41B09786E
S113C41011F00101002900D0012027E0DFF8D01B32
S113C4200978C1F3C001C9B2002900D001201DE080
S113C430DFF8BC1B0978C1F34001C9B2002900D060
S113C440012013E0DFF8A81B0978C1F38001C9B209
S113C450002900D0012009E0DFF8941B0978C1F31A
S113C4600011C9B2002900D00120FFE7C0B20028A2
S113C47026D15FFA8BFBBBF1010F10D105208DF89B
S113C480040000200090012301AA58F00C01C9B255
S113C4905FFA89F9484680B205F088FFABE60420CC
S113C4A08DF8040000200090012301AA58F00A012D
S113C4B0C9B25FFA89F9484680B205F077FF9AE677
S113C4C005208DF8040000200090012301AA58F0F3
S113C4D00C01C9B25FFA89F9484680B205F066FFDB
S113C4E089E65FFA8AFABAF1000F10D103208DF8B9
S113C4F0040000200090012301AA58F00F01C9B2E2
S113C5005FFA89F9484680B205F050FF73E65FFA96
S113C5108AFABAF1050F0FD100200090012305A279
S113C52058F00F01C9B25FFA89F9484680B205F0A4
S113C5303DFF60E6200000005FFA8AFABAF1060FB8
S113C54010D104208DF8040000200090012301AADA
S113C55058F00A01C9B25FFA89F9484680B205F079
S113C56025FF48E65FFA8AFABAF1040F7FF443AE76
S113C5705FFA8BFBBBF1000F14D0BBF1010F7FF40A
S113C5803AAE04208DF8040000200090012301AA93
S113C59058F00A01C9B25FFA89F9484680B205F039
S113C5A005FF28E603208DF80400002000900123F5
S113C5B001AA58F00F01C9B25FFA89F9484680B25E
S113C5C005F0F4FE17E6E4B2012C40F09E80F6B2CA
S113C5D0032E40F09A800EE000200090012354A224
S113C5E058F00C01C9B25FFA89F9484680B205F0E7
S113C5F0DDFE19F101095FFA89F9B9F1110FEBDBDD
S113C60002208DF8040000200090012301AA58F0B4
S113C6100F01C9B2112005F0C9FE01208DF80400F4
S113C62000200090012301AA58F00A01C9B2122087
S113C63005F0BCFE03208DF80400002000900123C7
S113C64001AA58F00F01C9B2132005F0AFFE04206F
S113C6508DF8040000200090012301AA58F00A017B
S113C660C9B2142005F0A2FE05208DF804000020B4
S113C6700090012301AA58F00C01C9B2152005F05D
S113C68095FE06208DF8040000200090012301AAE5
S113C69058F00C01C9B2162005F088FE05208DF86B
S113C6A0040000200090012301AA58F00F01C9B230
S113C6B0172005F07BFE04208DF804000020009074
S113C6C0012301AA58F00A01C9B2182005F06EFE30
S113C6D005208DF8040000200090012301AA58F0E1
S113C6E00C01C9B2192005F061FE13E0002000908E
S113C6F001230FA258F00C01C9B25FFA89F9484628
S113C70080B205F053FE19F101095FFA89F9B9F114
S113C7101A0FEBDBBDE8F78F7586FF1F7C8AFF1FBE
S113C7209C9EFF1F5487FF1F6086FF1F9C99FF1F5D
S113C73020000000288CFF1F2B8CFF1F239DFF1F50
S113C74080A4FF1FAC8AFF1F2DE9F04782B00500CB
S113C75016000093C9B2062900F09680C0F08D82BD
S113C760082900F07A8280F08882DFF8D80AB6B20D
S113C770052101FB0600B0F8030080B25FEA10391E
S113C7804FF6FE70834219D0DFF8B80AB6B205211D
S113C79001FB0600B0F803000205120D02FB03F0D2
S113C7A00090DFF8A00AB6B2052101FB0600B0F83C
S113C7B00110684606F050FB070002E00027002045
S113C7C000905FFA89F9B9F1000F0FD1DFF8740A0C
S113C7D0B6B2052101FB0600B0F80100002805D11E
S113C7E00099280006F0F8F90A244CE05FFA89F968
S113C7F0B9F1000F16D1DFF84C0AB6B2052101FBDE
S113C8000600B0F8010000280CD00099681C06F05E
S113C810E3F90B2420202870FFB2002F33D02D2001
S113C820287030E05FFA89F9B9F1000F1ED0DFF803
S113C830140AB6B2052101FB0600B0F80100002875
S113C84014D00099681C06F0C7F90B242020287026
S113C850FFB2002F01D02D2028702200D2B2494609
S113C860C9B2280006F0CDF9641C0CE00099280038
S113C87006F0B2F90A242200D2B24946C9B228000D
S113C88006F0BFF9641CF8E1DFF8080DB6B2182110
S113C89001FB0600407A10F00F0ADFF8F80CB6B27C
S113C8A0182101FB0600B0F8090010F47061DFF8EC
S113C8B0E40CB6B2182202FB0602D2F8050002020A
S113C8C0120ADFF8D00CB6B2182303FB0603D3F820
S113C8D005005FEA10790A98C0B2002801D0C0B2FE
S113C8E0020000985043009089B200290DD0B1F5A0
S113C8F0807F44D0B1F5407F2FD0B1F5806F77D0E1
S113C900B1F5A06F00F0A380B1E0DFF8880CB6B2F7
S113C910182101FB0600B0F80900C0040ED5DFF8A9
S113C920740CB6B2182101FB0601D1F8010000997C
S113C930401800905FF0010800270DE05FF0000848
S113C940DFF8500CB6B2182101FB0600D0F8011034
S113C950684606F081FA070089E05FF001080027C5
S113C960009800280AD0DFF82C0CB6B2182101FB7D
S113C9700600D0F80110684606F06EFA77E05FF022
S113C98000095FF0000800275FFA8AFABAF1010F84
S113C99008D02CD3BAF1030F17D00CD3BAF1040F7B
S113C9A01DD024E00098802804D301270098D0F5F6
S113C9B0807000901BE00098B0F5004F04D301276D
S113C9C00098D0F58030009011E00098B0F5000F89
S113C9D004D301270098D0F18070009007E00098FC
S113C9E0B0F1004F03D301270098404200903EE08D
S113C9F0DFF8A00BB6B2182101FB0600B0F809005D
S113CA00C0040ED5DFF88C0BB6B2182101FB060169
S113CA10D1F801000099401800905FF00108002748
S113CA2014E00098002803D15FF0000800270DE00F
S113CA305FF00008DFF85C0BB6B2182101FB0600BA
S113CA40D0F80110684606F007FA07000FE05FF01F
S113CA5001080027DFF83C0BB6B2182101FB0601E0
S113CA60D1F813000099814201D3002000905FFAAD
S113CA7089F9B9F1000F32D15FFA88F8B8F1000FE3
S113CA802DD05FFA8AFABAF1000F08D0BAF1020F7A
S113CA9013D00BD3BAF1040F1BD014D3DCE00099EC
S113CAA089B2280006F081F80524D5E0009989B2FE
S113CAB0280006F07AF80524CEE00099280006F054
S113CAC08BF80A24C8E00099280006F085F80A24A7
S113CAD0C2E00099280006F07FF80A24BCE05FFA5F
S113CAE089F9B9F1000F3AD15FFA88F8B8F1000F6B
S113CAF035D15FFA8AFABAF1000F08D0BAF1020F01
S113CB0013D00BD3BAF1040F1BD014D31EE0009939
S113CB1089B2681C06F049F8052417E0009989B227
S113CB20681C06F042F8052410E00099681C06F021
S113CB3053F80A240AE00099681C06F04DF80A2408
S113CB4004E00099681C06F047F80A2420202870A5
S113CB50FFB2002F01D02D202870641C7CE05FFA06
S113CB6089F9B9F1000F42D05FFA88F8B8F1000FE3
S113CB703DD15FFA8AFABAF1000F08D0BAF1020F78
S113CB8013D00BD3BAF1040F1BD014D31EE00099B9
S113CB9089B2681C06F009F8052417E0009989B2E7
S113CBA0681C06F002F8052410E00099681C06F0E1
S113CBB013F80A240AE00099681C06F00DF80A2408
S113CBC004E00099681C06F007F80A242020287065
S113CBD0FFB2002F01D02D202870641C2200D2B295
S113CBE04946C9B2280006F00CF8641C34E05FFA28
S113CBF08AFABAF1000F08D0BAF1020F13D00BD39E
S113CC00BAF1040F1BD014D31EE0009989B2280096
S113CC1005F0CBFF052417E0009989B2280005F040
S113CC20C4FF052410E00099280005F0D5FF0A246C
S113CC300AE00099280005F0CFFF0A2404E00099D7
S113CC40280005F0C9FF0A242200D2B24946C9B21D
S113CC50280005F0D6FF641C0FE00099280005F0B9
S113CC60BBFF0A245FF003092200D2B24946C9B2CD
S113CC70280005F0C6FF641CFFE72000C0B2BDE831
S113CC80F6870000C08AFF1FFEFFFF00388BFF1FDE
S113CC90B08BFF1F80B5DFF8DC0A007B50F0010089
S113CCA0DFF8D01A08730020DFF8C81A08800120C2
S113CCB0DFF8C01A88730120DFF8B81A487301201E
S113CCC0DFF8B01A08740120DFF8A81AC8738020AE
S113CCD0DFF8A41A08600020FCF79AFB552005F041
S113CCE0E1F8DFF8980A0078012806D01CD303285D
S113CCF00FD008D3042812D016E0DFF84C0C007AC9
S113CD0005F035F910E0DFF8400C407A05F02FF912
S113CD100AE0DFF8340C807A05F029F904E0DFF842
S113CD20280CC07A05F023F90A2005F00FFEAA208A
S113CD3005F0B8F8012005F0CEF80120DFF80C1C4E
S113CD4008700020DFF8081C087001BD0000000016
S113CD50085305003099FF1F4499FF1F7499FF1F62
S113CD605499FF1F6499FF1F8499FF1F9499FF1F13
S113CD70808AFF1F10B504002078C00705D5002065
S113CD802080DFF8C80B007860E02078C00601D569
S113CD900020208005F0DBF8C0B200280FD1DFF8B6
S113CDA0B01B0978491CDFF8A82B1170DFF8A01B11
S113CDB00978152903DB1421DFF8942B1170C0B214
S113CDC000280BD00020DFF8881B0870DFF8A409C6
S113CDD0007B50F00100DFF89C190873DFF8700B3A
S113CDE00078142807D1DFF88C09007B10F0FE00CE
S113CDF0DFF880190873DFF884090078DFF8741904
S113CE0088702088C00522D5002020800120DFF80A
S113CE106C190870552005F045F8DFF82C0B007AE2
S113CE2005F0A5F8142005F091FDAA2005F03AF8C4
S113CE30DFF84009007B50F00100DFF8381908736F
S113CE40A27B01210020FCF747FC002010BD2078C4
S113CE50000623D5DFF8FC0A407810F00100002812
S113CE601CD1002020800220DFF810190870552002
S113CE7005F018F8DFF8D00A407A05F078F81420A5
S113CE8005F064FDAA2005F00DF8DFF8E808007B42
S113CE9050F00100DFF8DC180873D1E720884FF464
S113CEA02051084202D000202080C9E72088800554
S113CEB028D5DFF8A00A0078C0B2C009C0B20028A3
S113CEC003D1002020800120C0E700202080022020
S113CED0DFF8A8180870552004F0E4FFDFF8680AAA
S113CEE0407A05F044F8142005F030FDAA2004F03F
S113CEF0D9FFDFF88008007B50F00100DFF87418D8
S113CF0008739DE72088B0F5806F0AD1DFF8440AE2
S113CF10407810F00100002803D100202080012077
S113CF2094E7207880061AD500202080DFF84C088A
S113CF300078022809D10120DFF840180870DFF8D2
S113CF40080A007A05F013F87AE70220DFF82C18B3
S113CF500870DFF8F409407A05F009F870E72078E2
S113CF6040067FF56DAF0020208015206EE780B568
S113CF708020DFF8CC1A0860552004F093FF01BD2F
S113CF8080B50120FCF744FA0020DFF8E817887028
S113CF900120DFF8E017C8700120DFF8D817087106
S113CFA0DFF8D007007B10F0FE00DFF8C817087325
S113CFB00120DFF8C01788730120DFF8B817487321
S113CFC00120DFF8B017C8730120DFF8A817087430
S113CFD0002005E00021DFF86C2AC0B28154401C17
S113CFE0C0B20328F6DB0220DFF86019087001BD27
S113CFF0B884FF1F10B504002088C10705D50020A0
S113D0002080DFF848090078E8E0C10653D5002005
S113D0102080DFF8340A007810F0010000281CD0CA
S113D0200020DFF8281A0870DFF81C0A007810F0D6
S113D030FE00DFF8141A0870DFF8140A00880028CC
S113D04002D0A078401CA070A078DFF8041A0988E8
S113D05080B2884201D30020A070DFF8F80900787C
S113D060022809D0DFF8EC090078052804D0DFF89D
S113D070E409007808281CD1DFF8DC090078DFF81F
S113D080D4190978884214D0DFF8C8090078DFF889
S113D090C8190870DFF8BC090078032190FBF1F08F
S113D0A0DFF8B819C0B2415CC943DFF89829C0B2AF
S113D0B08154002081E0410721D500202080DFF841
S113D0C08C090078401CDFF884190870DFF87C09AB
S113D0D0007803289DDBDFF87008C07C002898D115
S113D0E00120DFF86418C874DFF87409007810F0C0
S113D0F0DF00DFF86C19087005F044FC89E721882B
S113D100C90507D5002020800120DFF870160870BB
S113D110002063E02178090607D500202080022042
S113D120DFF858160870002058E021884FF4205288
S113D130114202D0002020806BE7810607D5002031
S113D14020800220DFF834160870002046E0000733
S113D15021D5DFF8F8080078401CDFF8F0180870D3
S113D160DFF8E8080078022812DBDFF8DC07006843
S113D17000280DD00020DFF8D0170860DFF8E008A1
S113D180007810F0FD00DFF8D818087005F0FAFBFD
S113D190002020803DE7207840067FF53AAF00204C
S113D1A0208015201AE0DFF8BC18C0B24118497875
S113D1B0DFF8A828C0B28154401CC0B20328F2DBB7
S113D1C0DFF89808FCF73EF8A27B00210120FCF769
S113D1D083FAA17B0120FEF72DF8012010BD7047D2
S113D1E080B5DFF89005C078DFF8881588700120D5
S113D1F0DFF880150871DFF87C05007B10F0FE0075
S113D200DFF8701508730120DFF8681588730120B2
S113D210DFF8601548730120DFF858150874022000
S113D220FCF7F6F8002005E00021DFF83C28C0B246
S113D2308154401CC0B21028F6DB0120DFF80C1723
S113D240087001BD5801050010B5040020780007DE
S113D25040F1908000202080A078E070A078012820
S113D2600DD0C0F0868003282FD020D3052848D0C5
S113D27039D3072861D052D308286CD079E0DFF87D
S113D280E8070078032807DB0220DFF8C0160870DF
S113D290DFF8D407007809E0A27B03210220FCF721
S113D2A01BFAA17B0220FDF7C5FF022010BDDFF8A9
S113D2B0B8074078032807DB0220DFF890160870CF
S113D2C0DFF8A4074078F1E7E6E7DFF89C07807809
S113D2D0032807DB0220DFF874160870DFF88807DC
S113D2E08078E3E7D8E7DFF88007C078032807DB16
S113D2F00220DFF858160870DFF86C07C078D5E70D
S113D300CAE7DFF864070079032807DB0220DFF8A7
S113D3103C160870DFF850070079C7E7BCE7DFF870
S113D32048074079032807DB0220DFF8201608703D
S113D330DFF834074079B9E7AEE7DFF82C078079E6
S113D340032807DB0220DFF804160870DFF818074B
S113D3508079ABE7A0E7DFF81007C079032807DB83
S113D3600220DFF8E8150870DFF8FC06C0799DE7B5
S113D37092E791E72078C00705D500202080DFF8E8
S113D380CC05007892E72078800607D5002020801D
S113D3900220DFF8E8130870002087E72078C00631
S113D3A002D50020208077E72078400708D5A078B0
S113D3B0C82802DAA078401CA070002020806BE707
S113D3C02078800708D5A078002802D0A078401ED5
S113D3D0A070002020805FE72088C00507D50020CA
S113D3E020800120DFF89413087000205EE7207885
S113D3F0000607D5002020800220DFF88013087083
S113D400002053E720884FF42051084202D0002026
S113D410208041E72078800607D500202080022064
S113D420DFF858130870002040E7207840067FF5A5
S113D43033AF00202080152038E7704780B5DFF82F
S113D4403403007B10F0FE00DFF828130873FF207C
S113D450DFF8201308810020DFF8181388700120FA
S113D460C44988730120C34948730120C149087421
S113D4700320FBF7CDFF01BD10B504002078C007E1
S113D48005D500202080DFF8C40400781DE0207852
S113D49040071BD5DFF8B8050088062809DBA0780B
S113D4A0DFF8AC150988491F884202DAA078401DCC
S113D4B0A07000202080A27B01210320FCF70CF93E
S113D4C0A17B0320FDF7B6FE032010BD2078800762
S113D4D00BD5A078052803DBA078401FA07001E0DD
S113D4E00020A07000202080E5E72088C00506D534
S113D4F0002020800120A14908700020E5E7207861
S113D500000606D50020208002209C4908700020D7
S113D510DBE720884FF42051084202D0002020800D
S113D520C9E72078800606D5002020800220934990
S113D53008700020C9E720784006BCD50020208070
S113D5401520C2E7704780B58A48007B10F0FE00C2
S113D550884908738748007986498870012085497D
S113D5608873012083494873012082490874042088
S113D570FBF74EFF002005E00021DFF8EC24C0B2E9
S113D5808154401CC0B21028F6DB0220DFF8BC1323
S113D590087001BDFC10050010B504002078C00718
S113D5A005D500202080DFF8A403007818E0207857
S113D5B0800606D5002020800220704908700020D3
S113D5C00EE02078C0060CD500202080A27B02212A
S113D5D00420FCF781F8A17B0420FDF72BFE042036
S113D5E010BD2078000740F17F806248807861494F
S113D5F0087100202080A07801280CD073D3032860
S113D60023D015D305283AD02CD3072851D043D39F
S113D61008285BD067E0DFF850040078032806DBB5
S113D6200420CA490870DFF840040078D8E7CDE741
S113D630DFF834044078032806DB0420C34908706B
S113D640DFF824044078CBE7C0E7DFF81C048078D7
S113D650032806DB0420BD490870DFF80C04807839
S113D660BEE7B3E7DFF80004C078032806DB042034
S113D670B6490870DFF8F003C078B1E7A6E7DFF831
S113D680E8030079032806DB0420B0490870DFF8BA
S113D690D8030079A4E799E7DFF8CC03407903289D
S113D6A006DB0420A9490870DFF8BC03407997E73A
S113D6B08CE7DFF8B4038079032806DB0420A34950
S113D6C00870DFF8A40380798AE77FE7DFF898031E
S113D6D0C079032806DB04209C490870DFF888031E
S113D6E0C0797DE772E771E72078400708D5A07814
S113D6F0C82802DAA078401CA0700020208065E7CA
S113D7002078800708D5A078002802D0A078401E91
S113D710A0700020208059E72088C00506D500208D
S113D7202080012015490870002059E72078000660
S113D73006D50020208002201049087000204FE701
S113D74020884FF42051084202D0002020803DE779
S113D7502078800606D50020208002200749087022
S113D76000203DE7207840067FF530AF0020208080
S113D770152035E76C98FF1F04F10F4097A4FF1F95
S113D78070472DE9F04186B004000D0016001F001B
S113D790DFF8B80C007810F00100002826D15FF003
S113D7A000081EE0DFF8A80C5FFA88F818F80000FB
S113D7B0C0B20009DFF89C1C5FFA88F801F8180071
S113D7C0DFF88C0C5FFA88F818F8000010F00F00EE
S113D7D0DFF8801C5FFA88F811EB4801487018F1F3
S113D7E001085FFA88F8B8F1060FDBDB32208DF808
S113D7F0040030208DF80500DFF8580C0078303034
S113D8008DF80600DFF84C0C407830308DF80700B6
S113D8102D208DF80800DFF83C0C807830308DF82E
S113D8200900DFF8300CC07830308DF80A002D2064
S113D8308DF80B00DFF81C0C007930308DF80C00EB
S113D840DFF8100C407930308DF80D0020208DF871
S113D8500E00DFF8000C807930308DF80F00DFF80F
S113D860F40BC07930308DF810003A208DF8110097
S113D870DFF8E00B007A30308DF81200DFF8D40BBB
S113D880407A30308DF813003A208DF81400DFF818
S113D890C40B807A30308DF81500DFF8B80BC07AED
S113D8A030308DF81600FFB20A2F01DB7F1D12E025
S113D8B0FFB2082F01DB3F1D0DE0FFB2062F01DB95
S113D8C0FF1C08E0FFB2042F01DBBF1C03E0FFB222
S113D8D0022F00DB7F1C5FF0000812E000200090A4
S113D8E0012301A85FFA88F818EB00022900C9B2E5
S113D8F05FFA88F858FA84F080B204F057FD18F102
S113D90001085FFA88F8B8F1130F1ADA5FFA88F899
S113D910FFB2B81C8045E1D1F6B2002EDED0012062
S113D9200090012301A85FFA88F818EB000229008F
S113D930C9B25FFA88F858FA84F080B204F036FD70
S113D940DDE706B0BDE8F0815487FF1F99A4FF1FEF
S113D9509BA4FF1FD899FF1F80B50020DFF8081D86
S113D960C872DFF8040D007B10F0FE00DFF8F81C2D
S113D9700873DFF8D80A007810F0FE00DFF8CC1A3C
S113D98008700120DFF8E01C88700020DFF8D81C44
S113D99008810020DFF8D01CC8720120DFF8C81C01
S113D9A088730120DFF8C01C48730120DFF8B81C1D
S113D9B008740520FBF72CFD002017E0DFF8901A0F
S113D9C0C0B2415CC9B20909DFF8882AC0B202F8C2
S113D9D01010DFF87C1AC0B2415C11F00F01DFF8BF
S113D9E0742AC0B212EB40025170401CC0B2062827
S113D9F0E4DBDFF83C0D007B401F052803D3052042
S113DA00DFF82C1D0873DFF8280D407B042804DAA6
S113DA10DFF81C0D407B002803D10120DFF8101D26
S113DA204873DFF80C0D807B042804DADFF8000D5E
S113DA30807B002803D10120DFF8F41C887301BD2A
S113DA4008F10F40548AFF1F308CFF1F9DA4FF1F55
S113DA5080A4FF1F9CA4FF1F8A84FF1F588AFF1FF6
S113DA60A484FF1F9C99FF1F6C8AFF1F1CB5040030
S113DA702078C00731D500202080208900280CD1CF
S113DA8004F080FFDFF8A80C007BDFF8E41C81F8C9
S113DA90CB00DFF8E00C0078ECE1A078042807D193
S113DAA0E07A401CE072E07A0C2801DB0020E0728E
S113DAB02089012840F08D812078400740F1C380FF
S113DAC0A07801286FD1DFF8680C007B062862DAA1
S113DAD00920DFF85C1C0873B2E0207800072AD51F
S113DAE000202080208900280AD101202081DFF82D
S113DAF05C09007810F0FE00DFF850190870D7E7D1
S113DB00DFF84809007810F0010000280ED00CF06E
S113DB107DF9DFF83809007810F0FE00DFF82C19E1
S113DB2008700020E07200202081C1E70020E0722C
S113DB3000202081BCE72088C00507D50020208074
S113DB400120DFF8F81C0870002093E1207800061B
S113DB5007D5002020800220DFF8E01C0870002098
S113DB6088E120884FF42051084202D00020208010
S113DB709EE72078800607D5002020800220DFF869
S113DB80BC1C0870002075E12078400690D5002068
S113DB90208015206EE1DFF8980B007B401EDFF833
S113DBA0901B08734CE0A078022811D1DFF8800B99
S113DBB0407B022804DA0320DFF8741B48733FE03B
S113DBC0DFF86C0B407B401EDFF8641B487337E0C2
S113DBD0A078032811D1DFF8580B807B022804DADF
S113DBE00320DFF84C1B88732AE0DFF8440B807BAA
S113DBF0401EDFF83C1B887322E0A07804281FD164
S113DC00DFF84808007850F00100DFF84018087089
S113DC10DFF84008E17A085C002808D1DFF8740CCA
S113DC20E17A085CDFF82C18E27A505408E0DFF857
S113DC302408E17A085C401EDFF81818E27A505490
S113DC400020208066E02078800763D5A078012832
S113DC5010D1DFF8DC0A007B092804DB0520DFF89B
S113DC60D01A087306E0DFF8C80A007B401CDFF80E
S113DC70C01A0873A078022810D1DFF8B40A407BD8
S113DC80032804DB0120DFF8A81A487306E0DFF854
S113DC90A00A407B401CDFF8981A4873A078032838
S113DCA012D1DFF88C0A807B032804DB0120DFF823
S113DCB0801A887306E0DFF8780A807B401CDFF85E
S113DCC0701A887300202080A078042820D1DFF8FF
S113DCD07C07007850F00100DFF870170870DFF857
S113DCE07407E17A085CDFF8AC1BE27A515C884285
S113DCF009D2DFF86007E17A085C401CDFF85417AA
S113DD00E27A505404E00020DFF84817E27A5054D5
S113DD1000202080DFF8180A007B30308DF80400E2
S113DD20A078012808D101200090012301AA3C21F8
S113DD30002004F03BFB07E000200090012301AA2F
S113DD403C21002004F032FBDFF8E409407B303052
S113DD508DF80400A078022808D101200090012346
S113DD6001AA3C21012004F021FB07E000200090DF
S113DD70012301AA3C21012004F018FBDFF8B009BB
S113DD80807B30308DF80400A078032808D101206E
S113DD900090012301AA3C21022004F007FB07E0C4
S113DDA000200090012301AA3C21022004F0FEFA85
S113DDB0A078042806D1E37A012234210320FFF756
S113DDC0E0FC4DE00023002234210320FFF7D9FCBE
S113DDD046E02078400708D5A078C82802DAA07861
S113DDE0401CA070002020800AE02078800707D51E
S113DDF0A078002802D0A078401EA07000202080C7
S113DE00DFF82C09007B30308DF8040000200090EE
S113DE10012301AA3C21002004F0C8FADFF810090C
S113DE20407B30308DF8040000200090012301AACB
S113DE303C21012004F0BAFADFF8F408807B30308A
S113DE408DF8040000200090012301AA3C21022047
S113DE5004F0ACFA0023002234210320FFF791FCE4
S113DE60A27B02210520FBF737FCA17B0520FDF7EF
S113DE70E1F9052016BD704780B5DFF8EC07007B9B
S113DE8010F0FE00DFF8E01708730120DFF8D81760
S113DE9088700020DFF8D0170881DFF89408007A32
S113DEA0042803DB0020DFF888180872DFF88008F4
S113DEB0407A042803DB0020DFF874184872DFF886
S113DEC07008807A042803DB0020DFF86418887265
S113DED0DFF85C08C07A042803DB0020DFF8501860
S113DEE0C8728020DFF8441C08600120DFF878172E
S113DEF088730120DFF8701748730120DFF8681772
S113DF0008740620FBF784FA01BD1CB504002078D0
S113DF10C0070AD500202080208900280FD104F0F2
S113DF2031FDDFF85008007865E22078000724D539
S113DF30002020802089002819D1012020812089F7
S113DF40012840F0FF812078400740F1E480A07868
S113DF5001285DD1DFF8D80B807A03283DDADFF899
S113DF60D00B807A401CDFF8C81B887239E000208F
S113DF702081552003F096FFE1E72088C00507D5EE
S113DF80002020800120DFF8B4180870002032E25D
S113DF902078000607D5002020800220DFF89C1896
S113DFA00870002027E220884FF42051084202D054
S113DFB000202080C3E72078800607D50020208039
S113DFC00220DFF878180870002014E22078400658
S113DFD0B5D50020208015200DE20020DFF8501B6D
S113DFE08872552003F05EFFDFF8440B807A03F05B
S113DFF0BEFF01200090012301AA3C21002004F06F
S113E000D5F91E2004F0A2FCAA2003F04BFF7FE008
S113E010A078022827D1DFF8180B407A032807DA02
S113E020DFF80C0B407A401CDFF8041B487203E055
S113E0300020DFF8FC1A4872552003F033FFDFF8A4
S113E040F00A407A03F093FF01200090012301AA13
S113E0503C21012004F0AAF91E2004F077FCAA2038
S113E06003F020FF54E0A078032827D1DFF8C00A8A
S113E070007A032807DADFF8B80A007A401CDFF8D0
S113E080B01A087203E00020DFF8A41A08725520C1
S113E09003F008FFDFF8980A007A03F068FF012014
S113E0A00090012301AA3C21022004F07FF91E20E4
S113E0B004F04CFCAA2003F0F5FE29E0A078042823
S113E0C026D1DFF86C0AC07A032807DADFF8600A81
S113E0D0C07A401CDFF8581AC87203E00020DFF849
S113E0E0501AC872552003F0DDFEDFF8440AC07AE6
S113E0F003F03DFF01200090012301AA3C210320ED
S113E10004F054F91E2004F021FCAA2003F0CAFEF6
S113E11000202080ADE02078800740F1AA80A0781C
S113E120012826D1DFF8080A807A002804D10320C8
S113E130DFF8FC19887206E0DFF8F409807A401EE3
S113E140DFF8EC198872552003F0ACFEDFF8E00923
S113E150807A03F00CFF01200090012301AA3C21E6
S113E160002004F023F91E2004F0F0FBAA2003F0A1
S113E17099FEA078022826D1DFF8B409407A002855
S113E18004D10320DFF8A819487206E0DFF8A009DB
S113E190407A401EDFF898194872DFF89409407AF3
S113E1A003F0E5FE552003F07DFE012000900123DD
S113E1B001AA3C21012004F0F9F81E2004F0C6FB5A
S113E1C0AA2003F06FFEA078032826D1DFF86009A7
S113E1D0007A002804D10320DFF85419087206E0FD
S113E1E0DFF84C09007A401EDFF844190872DFF8A2
S113E1F04009007A03F0BBFE552003F053FE0120D2
S113E2000090012301AA3C21022004F0CFF81E2033
S113E21004F09CFBAA2003F045FEA078042826D134
S113E220DFF80C09C07A002804D10320DFF80019B4
S113E230C87206E0DFF8F808C07A401EDFF8F0186C
S113E240C872DFF8EC08C07A03F091FE552003F0A1
S113E25029FE01200090012301AA3C21032004F09F
S113E260A5F81E2004F072FBAA2003F01BFE002078
S113E2702080DFF8BC08807A30308DF80400A07864
S113E280012808D101200090012301AA3C2100208B
S113E29004F08CF807E000200090012301AA3C213F
S113E2A0002004F083F8DFF88808407A30308DF8D5
S113E2B00400A078022808D101200090012301AABB
S113E2C03C21012004F072F807E0002000900123B3
S113E2D001AA3C21012004F069F8DFF85408007A0F
S113E2E030308DF80400A078032808D10120009074
S113E2F0012301AA3C21022004F058F807E0002081
S113E3000090012301AA3C21022004F04FF8DFF819
S113E3102008C07A30308DF80400A078042808D191
S113E32001200090012301AA3C21032004F03EF8BF
S113E33057E000200090012301AA3C21032004F0AF
S113E34035F84EE02078400708D5A078C82802DACE
S113E350A078401CA070002020800AE0207880076C
S113E36007D5A078002802D0A078401EA070002015
S113E3702080DFF8BC07807A30308DF8040000205C
S113E3800090012301AA3C21002004F00FF8DFF8DB
S113E390A007407A30308DF804000020009001235B
S113E3A001AA3C21012004F001F8DFF88407007A77
S113E3B030308DF8040000200090012301AA3C2194
S113E3C0022003F0F3FFDFF86807C07A30308DF8DD
S113E3D0040000200090012301AA3C21032003F043
S113E3E0E5FFA27B02210620FBF776F9A17B06203C
S113E3F0FCF720FF062016BD80B58020DFF8541CF2
S113E4000860552003F04EFD012003F064FD01BDBA
S113E41080B59548007B10F0FE00934908730120F5
S113E42091498870904800798F49887001208E49FD
S113E430887301208C49487301208B490874072094
S113E440FAF7E6FF0220CB49087001BD9884FF1F4C
S113E450209DFF1F289DFF1F10B504002078C007D2
S113E46004D500202080C348007814E020784007B9
S113E47012D5A078C82802DAA078401CA070002029
S113E4802080A27B02210720FBF726F9A17B07202D
S113E490FCF7D0FE072010BD2078800708D5A078AF
S113E4A0002802D0A078401EA07000202080E8E759
S113E4B02078800602D500202080E2E72078C0067C
S113E4C002D500202080DCE72078000740F17F801F
S113E4D0654880786449087100202080A07801286C
S113E4E00CD073D3032823D015D305283AD02CD3CA
S113E4F0072851D043D308285BD067E0DFF8AC0B82
S113E5000078032806DB07209A490870DFF89C0B83
S113E5100078C0E7B5E7DFF8940B4078032806DB02
S113E520072094490870DFF8840B4078B3E7A8E724
S113E530DFF8780B8078032806DB07208D49087004
S113E540DFF8680B8078A6E79BE7DFF8600BC078FC
S113E550032806DB072087490870DFF8500BC078D2
S113E56099E78EE7DFF8440B0079032806DB0720E0
S113E57080490870DFF8340B00798CE781E7DFF815
S113E5802C0B4079032806DB07207A490870DFF852
S113E5901C0B40797FE774E7DFF8100B80790328C0
S113E5A006DB072073490870DFF8000B807972E7F7
S113E5B067E7DFF8F80AC079032806DB07206D490E
S113E5C00870DFF8E80AC07965E75AE759E7208858
S113E5D0C00506D50020208001209849087000203D
S113E5E059E72078000606D50020208002209349B0
S113E5F0087000204FE720884FF42051084202D0D1
S113E600002020803DE72078800606D50020208069
S113E61002208A49087000203DE7207840067FF5F3
S113E62030AF00202080152035E7704780B5DFF833
S113E630840C007B10F0FE00DFF8781C08730820BF
S113E640FAF7E6FE0120DFF86C1C88730120DFF87E
S113E650641C48730120DFF85C1C08740020DFF898
S113E660541C887001BD00006C98FF1F10B5040095
S113E6702078C00704D5002020803E48007818E0A8
S113E6802078400716D5A07BC82802DAA07B401C5E
S113E690A073002020800020DFF8181C0881A27BD2
S113E6A000210820FBF718F8A17B0820FCF7C2FD25
S113E6B0082010BD207880070CD5A07B002802D04C
S113E6C0A07B401EA073002020800020DFF8E41B04
S113E6D00881E4E72088C00506D5002020800120B9
S113E6E0564908700020E4E72078000606D500208B
S113E6F020800220514908700020DAE720884FF476
S113E7002051084202D000202080C8E720788006EB
S113E71006D5002020800220484908700020C8E760
S113E72020784006BBD5002020801520C1E70000DA
S113E7305487FF1F704780B5DFF8780B007B10F01B
S113E740FE00DFF8701B08730920FAF761FE012050
S113E750DFF8601B88730120DFF8581B4873012021
S113E760DFF8501B08740020DFF8481B887001BDD7
S113E7706086FF1F99A4FF1F10B504002078C0070E
S113E78005D500202080DFF8400C007855E0208873
S113E790C00506D5002020800120284908700020EB
S113E7A04BE02078000606D5002020800220234973
S113E7B00870002041E020884FF42051084202D024
S113E7C0002020802FE02078800606D500202080BD
S113E7D002201A49087000202FE02078400603D553
S113E7E000202080152028E0207840070CD5A07B4D
S113E7F0C82802DAA07B401CA073002020800020DF
S113E800DFF8B01A08810EE0207880070BD5A07BD2
S113E810002802D0A07B401EA0730020208000208E
S113E820DFF8901A0881A27B00210920FAF754FF2F
S113E830A17B0920FCF7FEFC092010BD97A4FF1F53
S113E840704780B5DFF86C0A007B10F0FE00DFF83B
S113E850641A08730120DFF85C1A88700020DFF85E
S113E860541A08810020DFF84C1A88720120DFF85E
S113E870441A88730120DFF83C1A48730120DFF83A
S113E880341AC8730120DFF82C1A08740A20FAF726
S113E890BFFD01BDB87A020010B504002078C0079E
S113E8A005D500202080DFF8200B007818E02078C0
S113E8B0400716D5A07BC82802DAA07B401CA073B1
S113E8C0002020800020DFF8EC190881A17B0A20B9
S113E8D0FCF7B0FCA27B00210A20FAF7FDFE0A2017
S113E8E010BD207880070CD5A07B002802D0A07B27
S113E8F0401EA073002020800020DFF8B819088192
S113E900E4E72088C00507D5002020800120DFF837
S113E910501B08700020E3E72078000607D500208C
S113E92020800220DFF8381B08700020D8E72088F8
S113E9304FF42051084202D000202080C6E72078FE
S113E940800607D5002020800220DFF8141B087001
S113E9500020C5E720784006B8D500202080152087
S113E960BEE7704780B5DFF84C09007B10F0FE006D
S113E970DFF8401908730120DFF838198870002087
S113E980DFF8301948710120DFF8281908810020C8
S113E990DFF8201988720120DFF818198873012024
S113E9A0DFF8101948730120DFF8081908740020F3
S113E9B004E00021DFF8AC2A8154401C1228F8DB63
S113E9C00B20FAF725FD01BD10B504002078C0071F
S113E9D005D500202080DFF8F009007823E02078B6
S113E9E0400721D5002004E00021DFF8782A815473
S113E9F0401C1228F8DBA07BC82802DAA07B401C4C
S113EA00A07300202080A27B00210B20FAF764FE73
S113EA10A17B0B20FCF70EFC0023A279A17B60797B
S113EA20FDF71AFB0B2010BD2078800711D50020BC
S113EA3004E00021DFF82C2A8154401C1228F8DB62
S113EA40A07B002802D0A07B401EA0730020208061
S113EA50D9E72088C00507D5002020800120DFF8F1
S113EA60001A08700020DEE72078000607D5002091
S113EA7020800220DFF8E81908700020D3E72088FE
S113EA804FF42051084202D000202080BBE72078B8
S113EA90800607D5002020800220DFF8C419087002
S113EAA00020C0E720784006ADD500202080152046
S113EAB0B9E7002004E00021DFF8A8298154401CB4
S113EAC01228F8DB704780B5DFF8E807007B10F008
S113EAD0FE00DFF8E01708730120DFF8D81788700C
